:100000000C94D5000C94FD000C94FD000C94FD00A4
:100010000C94FD000C94FD000C94FD000C94FD006C
:100020000C94FD000C94FD000C943E040C94AD0463
:100030000C94FD000C94FD000C94FD000C94FD004C
:100040000C94FD000C94DF060C94FD000C94FD0054
:100050000C94FD000C94FD000C94FD000C94F40332
:100060000C94FD000C94FD000C94FD000C94FD001C
:100070000C94FD000C94FD000C94FD000C94FD000C
:100080000C94FD000C94FD000C94FD000C94FD00FC
:100090000C94FD000C94FD000C94FD000C94FD00EC
:1000A0000C94FD000C94FD000C94FD000000000079
:1000B0002300260029002C002F00080B000202025A
:1000C00001000904000001020200000524001001E3
:1000D0000524010101042402060524060001070588
:1000E000810310004009040100020A000000070516
:1000F00002024000000705830240000004030904D7
:1001000012010002EF020140032A408000010102B7
:100110000301556E6B6E6F776E0041726475696E88
:100120006F204C656F6E6172646F2045544800000B
:10013000000000240027002A002D003000000000ED
:1001400000250028002B002E0031000404040404C4
:10015000030405020202020403020202020606066A
:100160000606060404020202040404080201104008
:100170008040102040804080080204018040201010
:100180000201108010204040200000000200090FF2
:100190000000030401000C0000000000000000004B
:1001A0000000000000000000E00711241FBECFEF98
:1001B000DAE0DEBFCDBF11E0A0E0B1E0E2ECF2E1B9
:1001C00002C005900D92A632B107D9F721E0A6E250
:1001D000B1E001C01D92AE3BB207E1F710E0C5ED02
:1001E000D0E004C02197FE010E945909C43DD10707
:1001F000C9F70E9417080C945F090C940000FC01D9
:1002000080914501882311F13FB7F89482E08093F3
:10021000E9002091F200822F90E01816190614F4DC
:1002200081E090E0882339F0289844E64093440127
:100230004091F1004083222339F02091F2002111F6
:1002400003C02BE62093E8003FBF08958FEF9FEF98
:1002500008952FB7F89483E08093E9009091E80027
:10026000892F807295FF04C09091F20080E4891B71
:100270002FBF089580913C0181110DC082E08093D1
:10028000380184E08093390110923B0110923A01C9
:1002900081E080933C0188E391E00895282F30E0CD
:1002A000F901E757FE4F9491F901E659FE4F849109
:1002B000255B3E4FF9012491222309F430C0992394
:1002C000E9F091509F30D0F4E92FF0E0E659FE4F6D
:1002D0000C94590998019C017901900194017E01C7
:1002E0007E017E019F01A501A901AD01B3017E013F
:1002F000B701909180009F7790938000E22FF0E00B
:10030000EE0FFF1FE35CFE4FA591B4919FB7F894E9
:10031000EC91611132C080958E238C939FBF08951C
:10032000909180009F7DE8CF90918000977FE4CFEF
:1003300094B59F7794BDE2CF94B59F7DFBCF90910C
:1003400090009F7790939000D9CF909190009F7DDF
:10035000F9CF90919000977FF5CF9091C0009F7753
:100360009093C000CBCF9091C0009F7DF9CF90912A
:10037000C200977F9093C200C1CF8E2BCECFCF9378
:10038000DF9390E0FC01E659FE4F2491855B9E4F80
:10039000FC0184918823D1F090E0880F991FFC0123
:1003A000E15DFE4FA591B491FC01E35CFE4FC59168
:1003B000D49161110EC09FB7F8948C91E22FE09513
:1003C0008E238C932881E223E8839FBFDF91CF9116
:1003D00008958FB7F894EC91E22BEC938FBFF6CF92
:1003E0003FB7F8948091340190913501A091360186
:1003F000B091370126B5A89B05C02F3F19F0019693
:10040000A11DB11D3FBFBA2FA92F982F8827BC016E
:10041000CD01620F711D811D911D42E0660F771F96
:10042000881F991F4A95D1F70895CF92DF92EF92D6
:10043000FF920E94F0016B017C010E94F0016C1997
:100440007D098E099F09683E734081059105A8F3D7
:10045000FF90EF90DF90CF90089540912901509147
:100460002A01209127013091280142175307B4F443
:100470009091E8009570E1F39091E80092FD19C029
:100480008093F1008091290190912A0101968F7348
:100490009927892B19F48EEF8093E8008091290128
:1004A00090912A01019690932A018093290181E07D
:1004B000089580E00895EF92FF920F931F93CF93DA
:1004C000DF93F82E192FE62E042F81E0860F880F78
:1004D0000E942D0283E00E942D02CF2DD12FEC0E21
:1004E000FD2EF11CCE15DF05B9F007FF13C0FE018C
:1004F00084910E942D02182F80E00E942D028123FA
:1005000021968111EFCFDF91CF911F910F91FF9035
:10051000EF9008958881EDCF81E0F5CFDF92EF92E3
:10052000FF920F931F93CF93DF93D82E8A01EB0195
:100530007B01E40EF51ECE15DF0559F0D7FE12C083
:10054000FE0184910E942D0221968111F4CF0FEFBC
:100550001FEFC801DF91CF911F910F91FF90EF9096
:10056000DF9008958881EECF0F931F93CF93DF9391
:100570001F92CDB7DEB782E0898342E450E06AEB98
:1005800070E080E80E948E020E943A01DC0112961F
:100590000D911C910115110589F0D801ED91FC9187
:1005A0000280F381E02DBE016F5F7F4FC801099586
:1005B00097FD04C0F80100851185ECCF89810F906B
:1005C000DF91CF911F910F910895615030F02091EC
:1005D000F100FC0120830196F8CF289884E68093EF
:1005E000440108958F929F92AF92BF92CF92DF9273
:1005F000EF92FF920F931F93CF93DF936C017B01D8
:100600008A0180910B01882309F458C0809145012B
:10061000882309F453C080912D0180FF05C080918B
:10062000E00082608093E000E801B12C8AEFA82E00
:1006300093E0892E2AE3922E209711F4BB20B9F182
:100640000E942901811106C0AA94AA20B9F10E9432
:100650001502F2CF8C171D0611F00CF08C2F9FB7EE
:10066000F8948092E9002091E80025FD02C09FBF28
:10067000E3CF282F30E0C21BD30BF701815020F0CD
:1006800041914093F100FACFE20EF31EBB2021F01E
:100690009092E800B12CEBCF8091E80085FDE7CF88
:1006A0009092E800BB24B394209709F3F3CF5D98B0
:1006B00084E680932E01101611063CF081E090E054
:1006C000F6019383828310E000E0C801DF91CF91AF
:1006D0001F910F91FF90EF90DF90CF90BF90AF9060
:1006E0009F908F900895CF93DF931F92CDB7DEB781
:1006F0006983DC01ED91FC910280F381E02D41E002
:1007000050E0BE016F5F7F4F09950F90DF91CF9151
:10071000089583E08093E9008091F200882319F026
:100720008AE38093E80008950E94290190E00895EB
:10073000CF93DF931F92CDB7DEB7FC0184859585FB
:1007400097FD08C02FEF3FEF358724870F90DF918B
:10075000CF910895CE0101960E94FF00019719F4F0
:10076000898190E0F3CF8FEF9FEFF0CF0F931F932E
:10077000CF93DF931F92CDB7DEB78C01FC01848548
:10078000958597FF0BC0CE0101960E94FF0001974F
:1007900071F4898190E0F80195878487F801848558
:1007A00095850F90DF91CF911F910F9108958FEF55
:1007B0009FEFF1CFFC018485958597FD0BC09FB716
:1007C000F89482E08093E9008091F2009FBF90E06E
:1007D000019608959FB7F89482E08093E900809194
:1007E000F2009FBF90E008951F920F920FB60F92F4
:1007F00011242F933F938F939F93AF93BF93809137
:10080000300190913101A0913201B09133013091CA
:100810002F0123E0230F2D3758F50196A11DB11D9F
:1008200020932F018093300190933101A0933201E6
:10083000B09333018091340190913501A09136013C
:10084000B09137010196A11DB11D809334019093A1
:100850003501A0933601B0933701BF91AF919F91BD
:100860008F913F912F910F900FBE0F901F90189571
:1008700026E8230F0296A11DB11DD2CF1F920F9221
:100880000FB60F9211248F939F938091E100909166
:10089000E100937F9093E10083FF0FC01092E90085
:1008A00091E09093EB001092EC0092E39093ED00B6
:1008B0001092450198E09093F00082FF22C093E0EF
:1008C0009093E9009091F200992319F09AE39093A4
:1008D000E80090912E01992341F090912E019150C2
:1008E00090932E01911101C05D9A9091440199233A
:1008F00041F090914401915090934401911101C0B5
:10090000289A84FF18C08091E2008E7E81608093D7
:10091000E2008091E1008F7E8093E10080912D01C3
:100920008E7E806180932D019F918F910F900FBEDD
:100930000F901F90189580FFF7CF8091E2008E7E78
:1009400080618093E2008091E1008E7E8093E100DF
:1009500080912D018E7E8160E5CF1F920F920FB6A0
:100960000F921124CF92DF92EF92FF920F931F9379
:100970002F933F934F935F936F937F938F939F93A7
:10098000AF93BF93EF93FF93CF93DF93CDB7DEB7D2
:100990006C97DEBFCDBF1092E9008091E80083FF25
:1009A00025C068E0CE0145960E94E50282EF809363
:1009B000E8008D8987FF39C09091E80090FFFCCF57
:1009C000982F907609F034C19E894F89588D2F89D0
:1009D000F88C911131C0803861F580912C018093A1
:1009E000F1001092F1008EEF8093E8006C960FB644
:1009F000F894DEBF0FBECDBFDF91CF91FF91EF9195
:100A0000BF91AF919F918F917F916F915F914F9126
:100A10003F912F911F910F91FF90EF90DF90CF901A
:100A20000F900FBE0F901F9018959EEF9093E800C7
:100A3000C7CF1092F100D5CF913059F48111D3CFA7
:100A40004130510581F680912C018D7F80932C01DE
:100A5000CACF933049F48111C6CF4130510519F600
:100A600080912C018260F2CF953041F48091E800B2
:100A700080FFFCCF20682093E300B5CF963009F0CB
:100A8000A9C00B8D1C8D22E01092E90010922A0162
:100A900010922901F2122EC0109228011092270103
:100AA0000E94B4021F8299E09983FA8291E09E83AA
:100AB00090EA98879AEF99872091290130912A012D
:100AC000275F3F4F3C832B838D831092E900109268
:100AD0002A0110922901109328010093270149E06F
:100AE00050E0BE016F5F7F4F80E00E948E020E9447
:100AF000B40279CF10932801009327010E943A0194
:100B0000DC0112960D911C910115110509F451C1DA
:100B1000D801ED91FC910480F581E02DBE016B5E62
:100B20007F4FC8010995009709F03EC1F801008583
:100B30001185EACFF3E0FF120EC08F89882309F4F4
:100B400040C0823061F440E864E18AE191E00E94B3
:100B50005B02811148CF81E28093EB0047CF813067
:100B600029F440E867E082E191E0F1CF833099F722
:100B70000E943A01DC011296ED90FC908E010F5F0D
:100B80001F4F6801E114F10479F0D701ED91FC9158
:100B90000680F781E02DB801C7010995080F111DE6
:100BA000F701E084F184EECFD8011C92F6010190A8
:100BB0000020E9F73197BF016C197D0940E0C601BB
:100BC000C6CF6CEF70E0FB01449150E080E80E94DA
:100BD0008E0209CF973009F4BECF983021F481E01E
:100BE0008093F10000CF993009F0FDCE837009F0B9
:100BF000B2CFEDE0F1E081E031E096E321912223F4
:100C000071F08093E9003093EB00DF0111972C9194
:100C10002093EC009093ED008F5F873079F78EE79B
:100C20008093EA001092EA008F8980934501DBCE21
:100C30008B8D9C8D1092E90010922A01109229014F
:100C40009093280180932701898D811192C08E890C
:100C50009D89913A49F4813209F07DCF47E050E017
:100C600064E071E080E0B3CF913209F074CF833259
:100C700069F48F89988DB0E0A0E080930001909393
:100C80000101A0930201B0930301ADCE803269F45B
:100C90008091E80082FFFCCF67E084E091E00E9451
:100CA000E5028BEF8093E8009ECE823209F09BCE66
:100CB0008F8980930B01EEEFFFE7859194918B3F35
:100CC0009C4D51F1E0E0F8E0809104019091050124
:100CD000A0910601B0910701803B9440A105B105A8
:100CE000F1F480910B0180FD1AC0EE3F8AE0F80715
:100CF00089F587E797E791838083809160008093EF
:100D00002B0188E19BE00FB6F894A89580936000D2
:100D10000FBE9093600067CEEEEFFAE0D5CF8081F2
:100D200091818737974709F05ECEA8958091600042
:100D300088618093600080912B0180936000EE3F7A
:100D40002AE0F20789F08091FE0A9091FF0A9183D0
:100D5000808349CE808191818737980751F29093A3
:100D6000FF0A8093FE0AC5CF1092FF0A1092FE0A76
:100D70003ACE0E943A01DC0112960D911C910115A8
:100D8000110509F4E8CED801ED91FC910190F081B4
:100D9000E02DBE016B5E7F4FC8010995811123CE06
:100DA000F80100851185EBCF181619060CF41BCE3F
:100DB000D2CEF1E0FF12BECE60E071E004CF1F9210
:100DC0000F920FB60F9211242F933F934F935F937F
:100DD0006F937F938F939F93AF93BF93CF93DF9343
:100DE000EF93FF9380912601C091BA01D0E087FF75
:100DF00024C01092850010928400809126018F5F9C
:100E00008093260180912601082E000C990B8C17E7
:100E10009D0724F4809126018C30C4F180918400D8
:100E200090918500049680349C4908F47AC08091A2
:100E3000840090918500049676C080912601082E4A
:100E4000000C990B8C179D07C4F6E09126018E2F9C
:100E5000EE0F990BFC01EE0FFF1FE80FF91FEA568A
:100E6000FE4F808186FFC9CFE09126018E2FEE0FC5
:100E7000990BFC01EE0FFF1FE80FF91FEA56FE4F1A
:100E8000808160E08F730E944E01B7CF2091840073
:100E900030918500E09126018E2FEE0F990BFC0119
:100EA000EE0FFF1FE80FF91FEA56FE4F8181928176
:100EB000820F931F9093890080938800E091260110
:100EC0008E2FEE0F990BFC01EE0FFF1FE80FF91F9D
:100ED000EA56FE4F808186FF11C0E09126018E2FD9
:100EE000EE0F990BFC01EE0FFF1FE80FF91FEA56FA
:100EF000FE4F808161E08F730E944E01FF91EF9160
:100F0000DF91CF91BF91AF919F918F917F916F9121
:100F10005F914F913F912F910F900FBE0F901F90B7
:100F2000189580E49CE990938900809388008FEF66
:100F300080932601E3CFCF92DF92EF92FF920F933F
:100F40001F93E82FF92F05C001501109210931091C
:100F500061F1908196239417B9F305C001501109EE
:100F60002109310911F1908196239413F7CFC12CF7
:100F7000D12CE12CF12C0AC08FEFC81AD80AE80A4C
:100F8000F80A0C151D052E053F0579F08081862392
:100F9000841791F36C2D7D2D8E2D9F2D1F910F9118
:100FA000FF90EF90DF90CF90089560E070E080E0D8
:100FB00090E01F910F91FF90EF90DF90CF900895F8
:100FC000109249011092480188EE93E0A0E0B0E051
:100FD00080934A0190934B01A0934C01B0934D0133
:100FE00087E191E090934701809346018FEF9FEF57
:100FF00090935301809352018091BA018C3098F400
:1010000091E0980F9093BA018093BB0190E0FC01AE
:10101000EE0FFF1FE80FF91FEA56FE4F88EB9BE02B
:101020009283818308958FEF8093BB010895789414
:1010300084B5826084BD84B5816084BD85B58260DD
:1010400085BD85B5816085BD80916E00816080938E
:101050006E001092810080918100826080938100F7
:101060008091810081608093810080918000816007
:1010700080938000809191008260809391008091A4
:1010800091008160809391008091900081608093B5
:1010900090008091C10084608093C1008091C10064
:1010A00082608093C1008091C10081608093C10003
:1010B0008091C30081608093C3008091C0008260F2
:1010C0008093C0008091C20081608093C2008091B3
:1010D0007A00846080937A0080917A0082608093A5
:1010E0007A0080917A00816080937A0080917A0002
:1010F000806880937A001092450110922C01109222
:101100002D018091D70081608093D70080EA809381
:10111000D80089B5806189BD89B5826089BD09B46F
:1011200000FEFDCF0E9415028091D8008F7C806167
:101130008093D8008091E000807F8093E0008091D0
:10114000E1008E7E8093E1008DE08093E200559A6D
:10115000209A8091BB018C3008F051C061E089E099
:101160000E94BF018091BB01282F30E0F901EE0FF2
:10117000FF1FE20FF31FEA56FE4F9081907C9960AB
:1011800090831092BC011092BD012CE0622F0E944E
:101190004D09829FB001112430E020E0AB01420FE5
:1011A000531FFA01EE0FFF1FE40FF51FEA56FE4F23
:1011B000908196FD16C02F5F3F4F2C30310571F79F
:1011C00081110FC01092800082E080938100109204
:1011D000850010928400B19A80916F0082608093A4
:1011E0006F00E091BB018E2F90E0FC01EE0FFF1F1E
:1011F000E80FF91FEA56FE4F8081806480838FEFED
:101200009FEF909353018093520161E086E00E942A
:10121000BF0160E087E00E94BF01CFE0D0E093E231
:10122000E92EF12C21E7C22E21E0D22E32E5A32EA9
:1012300031E0B32E40E0842E40E0942E60E086E062
:101240000E944E01CE010197F1F761E086E00E9415
:101250004E01C7010197F1F760E086E00E944E0160
:1012600060E087E00E94BF01F6016491F50184917E
:10127000E82FF0E0EE0FFF1FE455FF4F85919491AA
:1012800000E412E42FE030E0462F0E949B07811417
:101290009104A1F20E940000D1CF991B79E004C013
:1012A000991F961708F0961B881F7A95C9F78095A5
:1012B0000895EE0FFF1F0590F491E02D0994F89426
:0212C000FFCF5E
:1012C200FFFFFFFF00E100000000000000C180817D
:1012D200000000000000007303F20294038903DAA5
:0612E200039803B60300AF
:00000001FF
