:100000000C94D5000C94FD000C94FD000C94FD00A4
:100010000C94FD000C94FD000C94FD000C94FD006C
:100020000C94FD000C94FD000C94CE040C943D0542
:100030000C94FD000C94FD000C94FD000C94FD004C
:100040000C94FD000C946F070C94FD000C94FD00C3
:100050000C94FD000C94FD000C94FD000C948404A1
:100060000C94FD000C94FD000C94FD000C94FD001C
:100070000C94FD000C94FD000C94FD000C94FD000C
:100080000C94FD000C94FD000C94FD000C94FD00FC
:100090000C94FD000C94FD000C94FD000C94FD00EC
:1000A0000C94FD000C94FD000C94FD000000000079
:1000B0002300260029002C002F00080B000202025A
:1000C00001000904000001020200000524001001E3
:1000D0000524010101042402060524060001070588
:1000E000810310004009040100020A000000070516
:1000F00002024000000705830240000004030904D7
:1001000012010002EF020140032A408000010102B7
:100110000301556E6B6E6F776E0041726475696E88
:100120006F204C656F6E6172646F2045544800000B
:10013000000000240027002A002D003000000000ED
:1001400000250028002B002E0031000404040404C4
:10015000030405020202020403020202020606066A
:100160000606060404020202040404080201104008
:100170008040102040804080080204018040201010
:100180000201108010204040200000000200090FF2
:100190000000030401000C0000000000000000004B
:1001A0000000000000000000700811241FBECFEF07
:1001B000DAE0DEBFCDBF11E0A0E0B1E0E2E7F7E1B9
:1001C00002C005900D92A033B107D9F721E0A0E35A
:1001D000B1E001C01D92AC3CB207E1F710E0C5ED03
:1001E000D0E004C02197FE010E94B10BC43DD107AD
:1001F000C9F70E94A7080C94B70B0C940000FC01EF
:1002000080915301882311F13FB7F89482E08093E5
:10021000E9002091F200822F90E01816190614F4DC
:1002200081E090E0882339F0289844E64093520119
:100230004091F1004083222339F02091F2002111F6
:1002400003C02BE62093E8003FBF08958FEF9FEF98
:1002500008952FB7F89483E08093E9009091E80027
:10026000892F807295FF04C09091F20080E4891B71
:100270002FBF089580914A0181110DC082E08093C3
:10028000460184E080934701109249011092480191
:1002900081E080934A0186E491E00895282F30E0C0
:1002A000F901E757FE4F9491F901E659FE4F849109
:1002B000255B3E4FF9012491222309F430C0992394
:1002C000E9F091509F30D0F4E92FF0E0E659FE4F6D
:1002D0000C94B10B98019C017901900194017E016D
:1002E0007E017E019F01A501A901AD01B3017E013F
:1002F000B701909180009F7790938000E22FF0E00B
:10030000EE0FFF1FE35CFE4FA591B4919FB7F894E9
:10031000EC91611132C080958E238C939FBF08951C
:10032000909180009F7DE8CF90918000977FE4CFEF
:1003300094B59F7794BDE2CF94B59F7DFBCF90910C
:1003400090009F7790939000D9CF909190009F7DDF
:10035000F9CF90919000977FF5CF9091C0009F7753
:100360009093C000CBCF9091C0009F7DF9CF90912A
:10037000C200977F9093C200C1CF8E2BCECFCF9378
:10038000DF9390E0FC01E659FE4F2491855B9E4F80
:10039000FC0184918823D1F090E0880F991FFC0123
:1003A000E15DFE4FA591B491FC01E35CFE4FC59168
:1003B000D49161110EC09FB7F8948C91E22FE09513
:1003C0008E238C932881E223E8839FBFDF91CF9116
:1003D00008958FB7F894EC91E22BEC938FBFF6CF92
:1003E0003FB7F8948091420190914301A09144015C
:1003F000B091450126B5A89B05C02F3F19F0019685
:10040000A11DB11D3FBFBA2FA92F982F8827BC016E
:10041000CD01620F711D811D911D42E0660F771F96
:10042000881F991F4A95D1F708958F929F92AF9296
:10043000BF92CF92DF92EF92FF924B015C010E943C
:10044000F0016B017C010E94F0016C197D098E099D
:100450009F09683E734081059105A8F321E0821A47
:100460009108A108B10888EEC80E83E0D81EE11CEF
:10047000F11C81149104A104B10429F7FF90EF90BD
:10048000DF90CF90BF90AF909F908F900895409154
:1004900037015091380120913501309136014217D2
:1004A0005307B4F49091E8009570E1F39091E8005F
:1004B00092FD19C08093F10080913701909138012D
:1004C00001968F739927892B19F48EEF8093E8009A
:1004D0008091370190913801019690933801809373
:1004E000370181E0089580E00895EF92FF920F9325
:1004F0001F93CF93DF93F82E192FE62E042F81E060
:10050000860F880F0E94470283E00E944702CF2D8A
:10051000D12FEC0EFD2EF11CCE15DF05B9F007FF33
:1005200013C0FE0184910E944702182F80E00E94B0
:100530004702812321968111EFCFDF91CF911F9147
:100540000F91FF90EF9008958881EDCF81E0F5CF76
:10055000DF92EF92FF920F931F93CF93DF93D82EEA
:100560008A01EB017B01E40EF51ECE15DF0559F083
:10057000D7FE12C0FE0184910E944702219681118C
:10058000F4CF0FEF1FEFC801DF91CF911F910F91B3
:10059000FF90EF90DF9008958881EECF0F931F9327
:1005A000CF93DF931F92CDB7DEB782E0898342E419
:1005B00050E06AEB70E080E80E94A8020E943A01D5
:1005C000DC0112960D911C910115110589F0D801DD
:1005D000ED91FC910280F381E02DBE016F5F7F4FB2
:1005E000C801099597FD04C0F80100851185ECCF7D
:1005F00089810F90DF91CF911F910F9108956150E4
:1006000030F02091F100FC0120830196F8CF28986A
:1006100084E68093520108958F929F92AF92BF9289
:10062000CF92DF92EF92FF920F931F93CF93DF93BE
:100630006C017B018A0180910B01882309F45CC065
:1006400080915301882309F457C080913B0180FFBA
:1006500005C08091E00082608093E000E801B12C49
:100660008AEFA82E93E0892E2AE3922E209711F488
:10067000BB20D9F10E94290181110AC0AA94AA20A5
:10068000D9F161E070E080E090E00E941502EECFC9
:100690008C171D0611F00CF08C2F9FB7F8948092E8
:1006A000E9002091E80025FD02C09FBFDFCF282F81
:1006B00030E0C21BD30BF701815020F041914093F1
:1006C000F100FACFE20EF31EBB2021F09092E80079
:1006D000B12CEBCF8091E80085FDE7CF9092E80048
:1006E000BB24B394209709F3F3CF5D9884E68093FD
:1006F0003C01101611063CF081E090E0F601938376
:10070000828310E000E0C801DF91CF911F910F912B
:10071000FF90EF90DF90CF90BF90AF909F908F9021
:100720000895CF93DF931F92CDB7DEB76983DC01C5
:10073000ED91FC910280F381E02D41E050E0BE019B
:100740006F5F7F4F09950F90DF91CF91089583E000
:100750008093E9008091F200882319F08AE3809366
:10076000E80008950E94290190E00895CF93DF9357
:100770001F92CDB7DEB7FC018485958597FD08C033
:100780002FEF3FEF358724870F90DF91CF910895AA
:10079000CE0101960E94FF00019719F4898190E033
:1007A000F3CF8FEF9FEFF0CF0F931F93CF93DF9394
:1007B0001F92CDB7DEB78C01FC018485958597FF2C
:1007C0000BC0CE0101960E94FF00019771F4898150
:1007D00090E0F80195878487F801848595850F90CE
:1007E000DF91CF911F910F9108958FEF9FEFF1CF80
:1007F000FC018485958597FD0BC09FB7F89482E036
:100800008093E9008091F2009FBF90E001960895E7
:100810009FB7F89482E08093E9008091F2009FBF37
:1008200090E00895FC0101900020E9F73197AF01B5
:10083000481B590BBC0184E591E00C940C038F928A
:100840009F92AF92BF920F931F93CF93DF93CDB739
:10085000DEB7A1970FB6F894DEBF0FBECDBF19A2C9
:10086000423008F44AE08E010F5D1F4F842E912C18
:10087000B12CA12CA50194010E944D0AE62FB901CB
:10088000CA01EA30F4F4E05DD801EE938D01232B28
:10089000242B252B79F790E080E0109719F0CD01FB
:1008A0000E941204A1960FB6F894DEBF0FBECDBF12
:1008B000DF91CF911F910F91BF90AF909F908F903C
:1008C0000895E95CE1CFCF92DF92EF92FF92CF9350
:1008D000DF936B017C016DE284E591E00E9491035E
:1008E000EC0166277727CB016C197D098E099F09DA
:1008F0004AE00E941F048C0F9D1FDF91CF91FF9053
:10090000EF90DF90CF9008951F920F920FB60F9245
:1009100011242F933F938F939F93AF93BF93809115
:100920003E0190913F01A0914001B0914101309171
:100930003D0123E0230F2D3758F50196A11DB11D70
:1009400020933D0180933E0190933F01A09340018D
:10095000B09341018091420190914301A0914401E3
:10096000B09145010196A11DB11D80934201909364
:100970004301A0934401B0934501BF91AF919F9172
:100980008F913F912F910F900FBE0F901F90189550
:1009900026E8230F0296A11DB11DD2CF1F920F9200
:1009A0000FB60F9211248F939F938091E100909145
:1009B000E100937F9093E10083FF0FC01092E90064
:1009C00091E09093EB001092EC0092E39093ED0095
:1009D0001092530198E09093F00082FF22C093E0C0
:1009E0009093E9009091F200992319F09AE3909383
:1009F000E80090913C01992341F090913C01915085
:100A000090933C01911101C05D9A909152019923FC
:100A100041F090915201915090935201911101C077
:100A2000289A84FF18C08091E2008E7E81608093B6
:100A3000E2008091E1008F7E8093E10080913B0194
:100A40008E7E806180933B019F918F910F900FBEAE
:100A50000F901F90189580FFF7CF8091E2008E7E57
:100A600080618093E2008091E1008E7E8093E100BE
:100A700080913B018E7E8160E5CF1F920F920FB671
:100A80000F921124CF92DF92EF92FF920F931F9358
:100A90002F933F934F935F936F937F938F939F9386
:100AA000AF93BF93EF93FF93CF93DF93CDB7DEB7B1
:100AB0006C97DEBFCDBF1092E9008091E80083FF04
:100AC00025C068E0CE0145960E94FF0282EF809328
:100AD000E8008D8987FF39C09091E80090FFFCCF36
:100AE000982F907609F034C19E894F89588D2F89AF
:100AF000F88C911131C0803861F580913A01809372
:100B0000F1001092F1008EEF8093E8006C960FB622
:100B1000F894DEBF0FBECDBFDF91CF91FF91EF9173
:100B2000BF91AF919F918F917F916F915F914F9105
:100B30003F912F911F910F91FF90EF90DF90CF90F9
:100B40000F900FBE0F901F9018959EEF9093E800A6
:100B5000C7CF1092F100D5CF913059F48111D3CF86
:100B60004130510581F680913A018D7F80933A01A1
:100B7000CACF933049F48111C6CF4130510519F6DF
:100B800080913A018260F2CF953041F48091E80083
:100B900080FFFCCF20682093E300B5CF963009F0AA
:100BA000A9C00B8D1C8D22E01092E9001092380133
:100BB00010923701F2122EC01092360110923501B8
:100BC0000E94CE021F8299E09983FA8291E09E836F
:100BD00090EA98879AEF99872091370130913801F0
:100BE000275F3F4F3C832B838D831092E900109247
:100BF000380110923701109336010093350149E016
:100C000050E0BE016F5F7F4F80E00E94A8020E940B
:100C1000CE0279CF10933601009335010E943A013C
:100C2000DC0112960D911C910115110509F451C1B9
:100C3000D801ED91FC910480F581E02DBE016B5E41
:100C40007F4FC8010995009709F03EC1F801008562
:100C50001185EACFF3E0FF120EC08F89882309F4D3
:100C600040C0823061F440E864E18AE191E00E9492
:100C70007502811148CF81E28093EB0047CF81302C
:100C800029F440E867E082E191E0F1CF833099F701
:100C90000E943A01DC011296ED90FC908E010F5FEC
:100CA0001F4F6801E114F10479F0D701ED91FC9137
:100CB0000680F781E02DB801C7010995080F111DC5
:100CC000F701E084F184EECFD8011C92F601019087
:100CD0000020E9F73197BF016C197D0940E0C6019A
:100CE000C6CF6CEF70E0FB01449150E080E80E94B9
:100CF000A80209CF973009F4BECF983021F481E0E3
:100D00008093F10000CF993009F0FDCE837009F097
:100D1000B2CFEDE0F1E081E031E096E321912223D2
:100D200071F08093E9003093EB00DF0111972C9173
:100D30002093EC009093ED008F5F873079F78EE77A
:100D40008093EA001092EA008F8980935301DBCEF2
:100D50008B8D9C8D1092E900109238011092370112
:100D60009093360180933501898D811192C08E89CF
:100D70009D89913A49F4813209F07DCF47E050E0F6
:100D800064E071E080E0B3CF913209F074CF833238
:100D900069F48F89988DB0E0A0E080930001909372
:100DA0000101A0930201B0930301ADCE803269F43A
:100DB0008091E80082FFFCCF67E084E091E00E9430
:100DC000FF028BEF8093E8009ECE823209F09BCE2B
:100DD0008F8980930B01EEEFFFE7859194918B3F14
:100DE0009C4D51F1E0E0F8E0809104019091050103
:100DF000A0910601B0910701803B9440A105B10587
:100E0000F1F480910B0180FD1AC0EE3F8AE0F807F3
:100E100089F587E797E791838083809160008093CD
:100E2000390188E19BE00FB6F894A89580936000A3
:100E30000FBE9093600067CEEEEFFAE0D5CF8081D1
:100E400091818737974709F05ECEA8958091600021
:100E50008861809360008091390180936000EE3F4B
:100E60002AE0F20789F08091FE0A9091FF0A9183AF
:100E7000808349CE808191818737980751F2909382
:100E8000FF0A8093FE0AC5CF1092FF0A1092FE0A55
:100E90003ACE0E943A01DC0112960D911C91011587
:100EA000110509F4E8CED801ED91FC910190F08193
:100EB000E02DBE016B5E7F4FC8010995811123CEE5
:100EC000F80100851185EBCF181619060CF41BCE1E
:100ED000D2CEF1E0FF12BECE60E071E004CF1F92EF
:100EE0000F920FB60F9211242F933F934F935F935E
:100EF0006F937F938F939F93AF93BF93CF93DF9322
:100F0000EF93FF9380913001C091C801D0E087FF3B
:100F100024C01092850010928400809130018F5F70
:100F20008093300180913001082E000C990B8C17B2
:100F30009D0724F4809130018C30C4F180918400AD
:100F400090918500049680349C4908F47AC0809181
:100F5000840090918500049676C080913001082E1F
:100F6000000C990B8C179D07C4F6E09130018E2F71
:100F7000EE0F990BFC01EE0FFF1FE80FF91FEC5568
:100F8000FE4F808186FFC9CFE09130018E2FEE0F9A
:100F9000990BFC01EE0FFF1FE80FF91FEC55FE4FF8
:100FA000808160E08F730E944E01B7CF2091840052
:100FB00030918500E09130018E2FEE0F990BFC01EE
:100FC000EE0FFF1FE80FF91FEC55FE4F8181928154
:100FD000820F931F9093890080938800E0913001E5
:100FE0008E2FEE0F990BFC01EE0FFF1FE80FF91F7C
:100FF000EC55FE4F808186FF11C0E09130018E2FAD
:10100000EE0F990BFC01EE0FFF1FE80FF91FEC55D7
:10101000FE4F808161E08F730E944E01FF91EF913E
:10102000DF91CF91BF91AF919F918F917F916F9100
:101030005F914F913F912F910F900FBE0F901F9096
:10104000189580E49CE990938900809388008FEF45
:1010500080933001E3CFCF92DF92EF92FF920F9314
:101060001F93E82FF92F05C00150110921093109FB
:1010700061F1908196239417B9F305C001501109CD
:101080002109310911F1908196239413F7CFC12CD6
:10109000D12CE12CF12C0AC08FEFC81AD80AE80A2B
:1010A000F80A0C151D052E053F0579F08081862371
:1010B000841791F36C2D7D2D8E2D9F2D1F910F91F7
:1010C000FF90EF90DF90CF90089560E070E080E0B7
:1010D00090E01F910F91FF90EF90DF90CF900895D7
:1010E000109257011092560188EE93E0A0E0B0E014
:1010F0008093580190935901A0935A01B0935B01DA
:1011000087E191E090935501809354018FEF9FEF19
:1011100090936101809360018091C8018C3098F4B4
:1011200091E0980F9093C8018093C90190E0FC0171
:10113000EE0FFF1FE80FF91FEC55FE4F88EB9BE009
:101140009283818308958FEF8093C90108957894E5
:1011500084B5826084BD84B5816084BD85B58260BC
:1011600085BD85B5816085BD80916E00816080936D
:101170006E001092810080918100826080938100D6
:1011800080918100816080938100809180008160E6
:101190008093800080919100826080939100809183
:1011A0009100816080939100809190008160809394
:1011B00090008091C10084608093C1008091C10043
:1011C00082608093C1008091C10081608093C100E2
:1011D0008091C30081608093C3008091C0008260D1
:1011E0008093C0008091C20081608093C200809192
:1011F0007A00846080937A0080917A008260809384
:101200007A0080917A00816080937A0080917A00E0
:10121000806880937A001092530110923A011092E4
:101220003B018091D70081608093D70080EA809352
:10123000D80089B5806189BD89B5826089BD09B44E
:1012400000FEFDCF61E070E080E090E00E941502BA
:101250008091D8008F7C80618093D8008091E000DD
:10126000807F8093E0008091E1008E7E8093E1009A
:101270008DE08093E200559A209A8091C9018C30CC
:1012800008F051C061E089E00E94BF018091C9016E
:10129000282F30E0F901EE0FFF1FE20FF31FEC558E
:1012A000FE4F9081907C996090831092CA011092B9
:1012B000CB012CE0622F0E94A50B829FB00111246C
:1012C00030E020E0AB01420F531FFA01EE0FFF1F89
:1012D000E40FF51FEC55FE4F908196FD16C02F5F71
:1012E0003F4F2C30310571F781110FC010928000F3
:1012F00082E0809381001092850010928400B19A60
:1013000080916F00826080936F00E091C9018E2F01
:1013100090E0FC01EE0FFF1FE80FF91FEC55FE4FA8
:101320008081806480838FEF9FEF90936101809331
:10133000600161E086E00E94BF0160E087E00E94FA
:10134000BF0143E2242E312C54E9452E512C612C4F
:10135000712CC0E0D0E060E086E00E944E018FE09A
:1013600090E00197F1F761E086E00E944E01C10133
:101370000197F1F760E086E00E944E0160E087E0AF
:101380000E94BF01E1E7F1E06491E2E5F1E08491C0
:10139000E82FF0E0EE0FFF1FE455FF4F8591949189
:1013A00000E412E42FE030E0462F0E942B086B018E
:1013B0007C01C114D104E104F10439F0FFEFCF1A2C
:1013C000DF0AEF0AFF0A8FE0F822C701B601959500
:1013D0008795779567950E94190B2DEC3CEC48EEAC
:1013E00051E40E946F0A0E94E10A4B015C01809265
:1013F000310190923201A0923301B0923401C701C1
:10140000B601A30192010E942E0ACA01B9014AE065
:101410000E941F0485E291E00E941204B7FE18C0EA
:10142000C501B4010E9463048AE291E00E941204A3
:101430008DE291E00E9412046AEF70E080E090E09B
:101440000E941502209709F486CF0E94000083CFE6
:101450004AE0C501B4010E941F04E6CF052E97FBA8
:101460001EF400940E94450A57FD07D00E944D0AC1
:1014700007FC03D04EF40C94450A509540953095E6
:1014800021953F4F4F4F5F4F0895909580957095F0
:1014900061957F4F8F4F9F4F0895A1E21A2EAA1B8F
:1014A000BB1BFD010DC0AA1FBB1FEE1FFF1FA21714
:1014B000B307E407F50720F0A21BB30BE40BF50B11
:1014C000661F771F881F991F1A9469F7609570959A
:1014D000809590959B01AC01BD01CF0108950E94BC
:1014E000830A0C946B0B0E94640B58F00E945D0BF6
:1014F00040F029F45F3F29F00C94540B51110C94E7
:101500009F0B0C945A0B0E947C0B68F39923B1F348
:10151000552391F3951B550BBB27AA276217730719
:10152000840738F09F5F5F4F220F331F441FAA1FAD
:10153000A9F335D00E2E3AF0E0E832D09150504069
:10154000E695001CCAF72BD0FE2F29D0660F771F17
:10155000881FBB1F261737074807AB07B0E809F0FD
:10156000BB0B802DBF01FF2793585F4F3AF09E3F82
:10157000510578F00C94540B0C949F0B5F3FE4F3EF
:10158000983ED4F3869577956795B795F7959F5FC5
:10159000C9F7880F911D9695879597F90895E1E011
:1015A000660F771F881FBB1F621773078407BA0770
:1015B00020F0621B730B840BBA0BEE1F88F7E095CB
:1015C00008950E94E80A6894B1110C949F0B089545
:1015D0000E94840B88F09F5798F0B92F9927B75134
:1015E000B0F0E1F0660F771F881F991F1AF0BA95C7
:1015F000C9F714C0B13091F00E949E0BB1E008957C
:101600000C949E0B672F782F8827B85F39F0B93F6D
:10161000CCF3869577956795B395D9F73EF4909579
:101620008095709561957F4F8F4F9F4F0895E894F7
:1016300009C097FB3EF490958095709561957F4F1A
:101640008F4F9F4F9923A9F0F92F96E9BB279395C8
:10165000F695879577956795B795F111F8CFFAF4D8
:10166000BB0F11F460FF1BC06F5F7F4F8F4F9F4F09
:1016700016C0882311F096E911C0772321F09EE867
:10168000872F762F05C0662371F096E8862F70E0CD
:1016900060E02AF09A95660F771F881FDAF7880FA7
:1016A0009695879597F9089597F99F6780E870E078
:1016B00060E008959FEF80EC089500240A941616C8
:1016C000170618060906089500240A941216130630
:1016D000140605060895092E0394000C11F48823BE
:1016E00052F0BB0F40F4BF2B11F460FF04C06F5FDA
:1016F0007F4F8F4F9F4F089557FD9058440F551FB0
:1017000059F05F3F71F04795880F97FB991F61F083
:101710009F3F79F087950895121613061406551FFA
:10172000F2CF4695F1DF08C0161617061806991F66
:10173000F1CF86957105610508940895E894BB275B
:1017400066277727CB0197F90895991B79E004C0A4
:10175000991F961708F0961B881F7A95C9F78095F0
:101760000895EE0FFF1F0590F491E02D0994F89471
:02177000FFCFA9
:10177200FFFFFFFF00E100000000000000C18081C8
:101782000000000000000091030C03B203A703F85D
:1017920003B603D403696E2C2000636D000D0A00AA
:00000001FF
