:100000000C9462000C948A000C948A000C948A0070
:100010000C948A000C948A000C948A000C948A0038
:100020000C948A000C948A000C948A000C948A0028
:100030000C948A000C948A000C948A000C948A0018
:100040000C9454040C948A000C948A000C948A003A
:100050000C948A000C948A000C948A000C948A00F8
:100060000C9435030C948A00000000002400270043
:100070002A000000000023002600290000000000E4
:10008000250028002B0004040404040404040202D4
:100090000202020203030303030301020408102007
:1000A0004080010204081020010204081020000012
:1000B0000008000201000003040700000000000027
:1000C00000009E0411241FBECFEFD8E0DEBFCDBFDD
:1000D00011E0A0E0B1E0EAE9FCE002C005900D9279
:1000E000A633B107D9F722E0A6E3B1E001C01D9223
:1000F000AD30B207E1F710E0C2E6D0E004C02197CE
:10010000FE010E944506C136D107C9F70E94BE0410
:100110000C944B060C94000085ED8093BC008091FC
:10012000BC0084FDFCCF1092CF0108952091A9015D
:10013000260F3327331F21323105ECF42091CF01F4
:10014000FC0190E080E0243069F082E00895A09105
:10015000A9012191AC0149575E4FA40FB52FB11DE4
:100160002C930196861798F38091A901680F6093EC
:10017000A90180E0089581E0089508950895089503
:10018000E091840180918301E81730F4F0E0ED59AB
:10019000FE4F808190E008958FEF9FEF089590913A
:1001A0008401809183012FEF3FEF981748F4E92FE6
:1001B000F0E0ED59FE4F208130E09F5F9093840185
:1001C000C90108958091830190918401891B990B45
:1001D0000895CF92DF92EF92FF920F931F93CF93E8
:1001E000DF937C01CB018A0120916201222389F0F7
:1001F000EB016B01C40ED51ECC15DD0569F06991CC
:10020000D701ED91FC910190F081E02DC701099596
:10021000F3CF642F0E949600C801DF91CF911F9108
:100220000F91FF90EF90DF90CF900895CF93DF93E1
:100230001F92CDB7DEB76983209162012223F9F0C6
:1002400020918501203258F021E030E0FC01338319
:10025000228390E080E00F90DF91CF91089580910C
:100260008601E82FF0E0EE5BFE4F998190838F5F6F
:10027000809386018093850181E090E0ECCF61E07E
:10028000CE0101960E949600F7CF833081F028F4CA
:10029000813099F08230A9F008958730A9F0883034
:1002A000C9F08430B1F4809180008F7D03C08091CB
:1002B00080008F7780938000089584B58F7784BD08
:1002C000089584B58F7DFBCF8091B0008F778093A8
:1002D000B00008958091B0008F7DF9CFCF93DF9368
:1002E000282F30E0F901E255FF4F8491F901E656DD
:1002F000FF4FD491F901EA57FF4FC491CC2389F005
:1003000081110E944501EC2FF0E0EE0FFF1FE45831
:10031000FF4FA591B4918FB7F894EC91DE2BDC934D
:100320008FBFDF91CF9108953FB7F89480913E0140
:1003300090913F01A0914001B091410126B5A89B49
:1003400005C02F3F19F00196A11DB11D3FBFBA2F67
:10035000A92F982F8827BC01CD01620F711D811D27
:10036000911D42E0660F771F881F991F4A95D1F7AC
:1003700008958F929F92AF92BF92CF92DF92EF92A9
:10038000FF924B015C010E9494016B017C010E9471
:1003900094016C197D098E099F09683E734081059F
:1003A0009105A8F321E0821A9108A108B10888EE0E
:1003B000C80E83E0D81EE11CF11C81149104A10435
:1003C000B10429F7FF90EF90DF90CF90BF90AF90EE
:1003D0009F908F900895AF92BF92CF92DF92EF924D
:1003E000FF920F931F93CF93DF936C017B018B01DF
:1003F000040F151FEB015E01AE18BF08C017D1072F
:1004000059F06991D601ED91FC910190F081E02DB8
:10041000C6010995892B79F7C501DF91CF911F910D
:100420000F91FF90EF90DF90CF90BF90AF90089525
:10043000CF93FC01C48121E020936201C093360177
:1004400010928601109285018385682B85EF91E0DB
:100450000E94160190918501913208F03FC0809171
:10046000CF018111FCCF82E08093CF0181E08093A6
:10047000D1018FEF8093CE011092F3019093F2019E
:10048000A2E4B1E0E2EDF1E080E098132FC0109219
:10049000F4018091F401CC0FC82BC093F40180913A
:1004A000D001813039F51092D0018091F401809310
:1004B000BB008091BC0083FDF8CF85EC8093BC002D
:1004C0008091CF018230E1F38091CE018F3F31F0F6
:1004D0008091CE01803211F08091CE011092860180
:1004E0001092850110926201CF9108952D91219370
:1004F0008F5FCBCF85EEE2CF089590E080E0089546
:100500008F929F92AF92BF920F931F93CF93DF93DF
:10051000CDB7DEB7A1970FB6F894DEBF0FBECDBF43
:1005200019A2423008F44AE08E010F5D1F4F842E5D
:10053000912CB12CA12CA50194010E942306E62F39
:10054000B901CA01EA3044F5E05DD801EE938D01AE
:10055000232B242B252B79F790E080E0109769F06E
:10056000FD0101900020E9F73197AF014A1B5B0BB9
:10057000BD0181E092E00E94EB01A1960FB6F894D4
:10058000DEBF0FBECDBFDF91CF911F910F91BF9006
:10059000AF909F908F900895E95CD7CF0F931F93F2
:1005A000CF938C01C62F0E9418026C2F6460C80183
:1005B0000E9418026C2F6B7FC8010E94180283EC06
:1005C00090E00197F1F7CF911F910F9108950F934C
:1005D0001F93CF93DF938C01D62FC42F607F642BA2
:1005E0000E94CE0280E1D89FB00111246C2BC8017B
:1005F000DF91CF911F910F910C94CE02CF93DF9397
:10060000CDB7DEB728970FB6F894DEBF0FBECDBFCB
:1006100098E0E0E0F1E0DE01119601900D929A95EC
:10062000E1F790910902981708F48FEF90E0880F96
:10063000991F21E030E02C0F3D1F820F931FFC011A
:100640006081606840E081E092E028960FB6F894FF
:10065000DEBF0FBECDBFDF91CF910C94E70241E02A
:100660000E94E70281E090E008951F920F920FB67A
:100670000F9211242F933F934F935F936F937F9328
:100680008F939F93AF93BF93EF93FF938091B900A4
:10069000887F803609F44AC0F0F5883209F4A7C093
:1006A00018F5803109F49BC0B8F4882309F4F9C027
:1006B000883009F494C0FF91EF91BF91AF919F9161
:1006C0008F917F916F915F914F913F912F910F90FB
:1006D0000FBE0F901F901895883109F488C08032A2
:1006E00051F78093CE0114C0803409F49DC040F4CA
:1006F0008033B9F38833F9F68093CE0185ECB0C02E
:10070000803509F485C0883509F496C0883499F697
:100710000E948C00D0CF883909F48CC038F5883716
:1007200029F050F4883611F0803729F683E0809361
:10073000CF011092CD0157C0883809F47BC08039B1
:1007400019F0803809F0B7CF8091CD01803208F0E0
:1007500071C0E091CD0181E08E0F8093CD01809139
:10076000BB00F0E0E355FE4F80833DC0803B39F095
:10077000E0F4803A09F479C0883A09F09CCF84E02B
:100780008093CF011092AA011092A901E091A701D4
:10079000F091A80109958091A90181110FC081E014
:1007A0008093A9011092870109C0803C09F4A6CF6B
:1007B000883C09F4A3CF883B09F07DCFE091AA01E2
:1007C00081E08E0F8093AA01F0E0E957FE4F80810F
:1007D0008093BB009091AA018091A90129C08091CA
:1007E000F4018093BB0085EC8093BC0064CF9091B2
:1007F000F3018091F201981758F5E091F30181E03F
:100800008E0F8093F301F0E0EE52FE4F8081E9CF2E
:10081000E091F30181E08E0F8093F3018091BB00A2
:10082000F0E0EE52FE4F80839091F3018091F2014F
:100830009817C8F285E8D8CFE091F30181E08E0FD8
:100840008093F3018091BB00F0E0EE52FE4F808375
:100850008091D10181115CCF81E08093D00184EA45
:100860008093BC001092CF0126CF85EC8093BC0012
:100870001092CF018091CD01803230F4E091CD0112
:10088000F0E0E355FE4F10826091CD0170E0E09101
:10089000AB01F091AC018DEA91E009951092CD0188
:1008A0000ACF1092CE0134CF1F920F920FB60F9243
:1008B00011242F933F938F939F93AF93BF93809176
:1008C0003A0190913B01A0913C01B0913D013091E2
:1008D000390123E0230F2D3758F50196A11DB11DD5
:1008E0002093390180933A0190933B01A0933C01FE
:1008F000B0933D0180913E0190913F01A091400154
:10090000B09141010196A11DB11D80933E019093CC
:100910003F01A0934001B0934101BF91AF919F91DE
:100920008F913F912F910F900FBE0F901F901895B0
:1009300026E8230F0296A11DB11DD2CFE5EFF1E00D
:100940001382128288EE93E0A0E0B0E08483958366
:10095000A683B7838CE091E091838083E1E0F2E0AD
:10096000138212828EE191E09183808387E28483F7
:1009700080E1818782E0828713860895789484B528
:10098000826084BD84B5816084BD85B5826085BD8B
:1009900085B5816085BD80916E00816080936E0019
:1009A000109281008091810082608093810080910B
:1009B00081008160809381008091800081608093BC
:1009C00080008091B10084608093B1008091B0007C
:1009D00081608093B00080917A00846080937A0077
:1009E00080917A00826080937A0080917A008160A1
:1009F00080937A0080917A00806880937A001092C8
:100A0000C100C7EAD0E0FE01249103E910E0F8013B
:100A100084918823C9F090E0880F991FFC01E85960
:100A2000FF4FA591B491FC01E458FF4F45915491BB
:100A30003FB7F8949C91822F809598239C93FA015C
:100A40009081892380833FBF10928401109283019B
:100A500010928601109285011092CF0181E080935F
:100A6000D1011092D00182E10E946E0183E10E94C7
:100A70006E018091B9008E7F8093B9008091B9009A
:100A80008D7F8093B90088E48093B80085E48093DB
:100A9000BC008DEB90E09093A8018093A7018EEBB2
:100AA00090E09093AC018093AB011092060280918C
:100AB0000B02823018F098E09093060280930902AE
:100AC00062E370E080E090E00E94B90160910C0266
:100AD00081E092E00E94180268EE73E080E090E00E
:100AE0000E94B90160E381E092E00E94CE029BE4A3
:100AF000E92E96E4F92EC7010197F1F760E381E052
:100B000092E00E94CE02C7010197F1F760E381E015
:100B100092E00E94CE0283E592E00197F1F760E255
:100B200081E092E00E94CE0260910602606240E0A5
:100B300081E092E00E94E70284E08093070240E0B7
:100B40006CE081E092E00E94E70240E061E081E039
:100B500092E00E94E7022BE3E22E2FE1F22EC70182
:100B60000197F1F782E08093080240E066E081E0BF
:100B700092E00E94E70240E062E081E092E00E94A1
:100B8000E702C7010197F1F788E080930C0260E06B
:100B900081E092E00E94180280E00E94FE024EE096
:100BA00050E066E271E081E092E00E94EB013BEBF5
:100BB000E32E30E0F32E40E0C42E40E0D42EF701C7
:100BC0008491FE01A490F801B490BB20A9F1811199
:100BD0000E944501EB2DF0E0EE0FFF1FEE58FF4F96
:100BE000A591B4918C91A82239F180903701909011
:100BF0003801FFEF8F1A9F0A9092380180923701D7
:100C000081E00E94FE02092C000CAA08BB084AE001
:100C1000C501B401B7FE0EC041E06DE281E092E093
:100C20000E94E70266277727CB01681979098A09AC
:100C30009B094AE00E948002C114D10409F4BFCF8D
:100C40000E940000BCCFA1E21A2EAA1BBB1BFD0113
:100C50000DC0AA1FBB1FEE1FFF1FA217B307E4079B
:100C6000F50720F0A21BB30BE40BF50B661F771FF3
:100C7000881F991F1A9469F76095709580959095D3
:100C80009B01AC01BD01CF010895EE0FFF1F059040
:0A0C9000F491E02D0994F894FFCFD1
:100C9A000000400014005400000000001601E900A2
:100CAA007D02BF00E200CF00C000000000002F0359
:100CBA00EB017D027C02427574746F6E205072657E
:060CCA0073736573000066
:00000001FF
