:100000000C9462000C948A000C948A000C948A0070
:100010000C948A000C948A000C948A000C94E802D8
:100020000C948A000C948A000C948A000C948A0028
:100030000C948A000C948A000C948A000C948A0018
:100040000C9446020C948A000C94B6020C94900214
:100050000C948A000C948A000C948A000C948A00F8
:100060000C948A000C948A00000000080002010031
:100070000003040700000000000000000000000072
:10008000240027002A000000000023002600290089
:1000900000000000250028002B00040404040404D0
:1000A0000404020202020202030303030303010227
:1000B00004081020408001020408102001020408F6
:1000C00010200D0311241FBECFEFD8E0DEBFCDBF3F
:1000D00011E0A0E0B1E0E8ECFAE002C005900D927A
:1000E000A032B107D9F721E0A0E2B1E001C01D9232
:1000F000AE3DB207E1F710E0C2E6D0E004C02197C0
:10010000FE010E945C05C136D107C9F70E947A033F
:100110000C9462050C94000090E0FC01E859FF4F3C
:100120002491FC01E255FF4F3491FC01E656FF4F4C
:10013000E491EE23C1F1222339F02330E9F090F469
:10014000213001F1223011F1F0E0EE0FFF1FEA57EC
:10015000FF4FA591B491EC91E32381E090E029F564
:1001600080E008952730A9F02830C9F0243061F7E5
:10017000809180008F7D03C0809180008F77809375
:100180008000E2CF84B58F7784BDDECF84B58F7DCC
:10019000FBCF8091B0008F778093B000D5CF809156
:1001A000B0008F7DF9CF80E090E00895CF93DF938A
:1001B00090E0FC01E255FF4F249186569F4FFC01D1
:1001C00084918823D1F090E0880F991FFC01E458B6
:1001D000FF4FA591B491FC01E057FF4FC591D49119
:1001E00061110EC09FB7F8948C91E22FE0958E2399
:1001F0008C932881E223E8839FBFDF91CF910895FC
:100200008FB7F894EC91E22BEC938FBFF6CF3FB70A
:10021000F89480912B0190912C01A0912D01B09127
:100220002E0126B5A89B05C02F3F19F00196A11DF0
:10023000B11D3FBFBA2FA92F982F8827BC01CD0130
:10024000620F711D811D911D42E0660F771F881F8F
:10025000991F4A95D1F70895AF92BF92CF92DF923E
:10026000EF92FF920F931F93CF93DF936C017B016B
:100270008B01040F151FEB015E01AE18BF08C017FC
:10028000D10759F06991D601ED91FC910190F0816F
:10029000E02DC6010995892B79F7C501DF91CF9132
:1002A0001F910F91FF90EF90DF90CF90BF90AF9094
:1002B0000895FC01538D448D252F30E0842F90E06C
:1002C000821B930B541710F0CF9608950197089551
:1002D000FC01918D828D981761F0A28DAE0FBF2F1A
:1002E000B11D5D968C91928D9F5F9F73928F90E070
:1002F00008958FEF9FEF0895FC01918D828D9817DF
:1003000031F0828DE80FF11D858D90E008958FEF1B
:100310009FEF0895FC01918D228D892F90E0805CE4
:100320009F4F821B91098F73992708958FE291E067
:100330000E948A0121E0892B09F420E0822F089590
:1003400080E090E0892B29F00E94960181110C94A5
:1003500000000895FC01A48DA80FB92FB11DA35A68
:10036000BF4F2C91848D90E001968F739927848FD5
:10037000A689B7892C93A089B1898C9183708064F8
:100380008C93938D848D981306C00288F389E02D99
:1003900080818F7D80830895EF92FF920F931F934A
:1003A000CF93DF93EC0181E0888F9B8D8C8D981328
:1003B0001AC0E889F989808185FF15C09FB7F89434
:1003C000EE89FF896083E889F98980818370806480
:1003D00080839FBF81E090E0DF91CF911F910F91CB
:1003E000FF90EF900895F62E0B8D10E00F5F1F4FDA
:1003F0000F731127E02E8C8D8E110CC00FB607FCE9
:10040000FACFE889F989808185FFF5CFCE010E9476
:10041000AA01F1CFEB8DEC0FFD2FF11DE35AFF4F39
:10042000F0829FB7F8940B8FEA89FB898081806204
:10043000CFCFCF93DF93EC01888D8823B9F0AA89C1
:10044000BB89E889F9898C9185FD03C0808186FD8F
:100450000DC00FB607FCF7CF8C9185FFF2CF8081DE
:1004600085FFEDCFCE010E94AA01E9CFDF91CF91A8
:100470000895FC0101900020E9F73197AF01481B76
:10048000590BBC018FE291E00C942C011F920F924A
:100490000FB60F9211242F933F938F939F93AF9397
:1004A000BF938091270190912801A0912901B091DB
:1004B0002A013091260123E0230F2D3758F50196AC
:1004C000A11DB11D2093260180932701909328013F
:1004D000A0932901B0932A0180912B0190912C01C6
:1004E000A0912D01B0912E010196A11DB11D809307
:1004F0002B0190932C01A0932D01B0932E01BF915D
:10050000AF919F918F913F912F910F900FBE0F90C0
:100510001F90189526E8230F0296A11DB11DD2CF7A
:100520001F920F920FB60F9211242F933F934F9368
:100530005F936F937F938F939F93AF93BF93EF934B
:10054000FF938FE291E00E94AA01FF91EF91BF918A
:10055000AF919F918F917F916F915F914F913F915B
:100560002F910F900FBE0F901F9018951F920F9212
:100570000FB60F9211242F938F939F93EF93FF93B6
:10058000E0913F01F09140018081E0914501F091BF
:10059000460182FD1BC09081809148018F5F8F735F
:1005A00020914901821741F0E0914801F0E0E15DBE
:1005B000FE4F958F80934801FF91EF919F918F910E
:1005C0002F910F900FBE0F901F9018958081F4CF40
:1005D0001F920F920FB60F9211242F933F934F93B8
:1005E0005F936F937F938F939F93AF93BF93EF939B
:1005F000FF93F0E0E0E00995FF91EF91BF91AF919B
:100600009F918F917F916F915F914F913F912F912A
:100610000F900FBE0F901F901895EFE2F1E013823C
:10062000128288EE93E0A0E0B0E084839583A683F5
:10063000B78384E091E09183808385EC90E0958797
:10064000848784EC90E09787868780EC90E0918B9C
:10065000808B81EC90E0938B828B82EC90E0958B89
:10066000848B86EC90E0978B868B118E128E138E86
:10067000148EE4EBF0E0E491ACECB1E01496EC9372
:100680001497E5EBF0E0E4911596EC93159780EA6A
:1006900090E0FC012491E22FF0E0EE0FFF1FE05705
:1006A000FF4F2591349117963C932E931697E1EACC
:1006B000F0E0E491F0E0EE0FFF1FEA57FF4F2591C5
:1006C000349119963C932E931897FC018491E82F4E
:1006D000F0E0EE0FFF1FE458FF4F859194911B96B9
:1006E0009C938E931A9781EC9CE21D969C938E931B
:1006F0001C970895CF93DF93CDB7DEB7A1970FB6C0
:10070000F894DEBF0FBECDBF789484B5826084BDFF
:1007100084B5816084BD85B5826085BD85B5816005
:1007200085BD80916E00816080936E001092810083
:10073000809181008260809381008091810081603E
:1007400080938100809180008160809380008091FF
:10075000B10084608093B1008091B000816080938B
:10076000B00080917A00846080937A0080917A0052
:10077000826080937A0080917A00816080937A0011
:1007800080917A00806880937A001092C100E09195
:100790003F01F091400182E08083E0913B01F091C4
:1007A0003C011082E0913D01F0913E018FEC80838D
:1007B00010924701E0914301F091440186E080836B
:1007C000E0914101F0914201808180618083E0915C
:1007D0004101F0914201808188608083E091410174
:1007E000F0914201808180688083E0914101F09125
:1007F000420180818F7D808361E086E00E94D60087
:1008000060E087E00E94D60060E082E00E94D600AF
:1008100089E3482E512C612C712C9AE0C92ED12CE1
:10082000E12CF12C20E0222E20E0322E82E00E94EA
:100830008C00019709F01AC1E091D601F091D7011F
:1008400080819091D001892B8083E091D201F09139
:10085000D30190818091D0018095892380838BE0A2
:1008600090E00197F1F7E091D201F091D3018081FE
:100870009091D001892B808383E290E00197F1F77A
:10088000E091D201F091D30190818091D0018095C7
:1008900089238083E091D601F091D70190818091E6
:1008A000D001809589238083E091D401F091D50116
:1008B00080819091D101892309F450C090E080E0BB
:1008C000BC0190E080E0A30192010E943A053093C0
:1008D00025012093240182E191E00E943902809059
:1008E000240190902501092C000CAA08BB08B7FE32
:1008F000A7C06DE28FE291E00E94CC01222733274E
:10090000A901281939094A095B0919A28E010F5D4D
:100910001F4FCA01B901A70196010E943A05605D07
:10092000F80162938F01211531054105510589F7C1
:100930000115110519F0C8010E9439028DE191E0FD
:100940000E9439022114310409F470CF0E949601EB
:10095000882309F46BCF0E94000068CF0E94070132
:10096000AB01BC018091D8019091D901B0E0A0E029
:100970008855994EAF4FBF4F840F951FA61FB71FC5
:100980008093DA019093DB01A093DC01B093DD0149
:10099000E091D401F091D50180819091D10189231A
:1009A00081F40E9407010091DA011091DB0120918E
:1009B000DC013091DD01061717072807390740F7DA
:1009C0007DCF0E9407012091D8013091D901620F9B
:1009D000731F811D911D6093DA017093DB01809379
:1009E000DC019093DD01E091D401F091D50180818B
:1009F0009091D101892381F00E9407010091DA01D1
:100A00001091DB012091DC013091DD010617170701
:100A10002807390740F752CF0E9407012091D801DB
:100A20003091D901A901455051092091DA01309145
:100A3000DB01FA01E21BF30BCF01860F971F40CFBA
:100A4000A501940119A28E010F5D1F4FCA01B901C2
:100A5000A70196010E943A05605DF80162938F013B
:100A6000211531054105510589F762CF82E00E94C9
:100A70008C0068CFA1E21A2EAA1BBB1BFD010DC082
:100A8000AA1FBB1FEE1FFF1FA217B307E407F5073E
:100A900020F0A21BB30BE40BF50B661F771F881F1A
:100AA000991F1A9469F760957095809590959B01B0
:100AB000AC01BD01CF010895EE0FFF1F0590F49129
:080AC000E02D0994F894FFCF2A
:100AC80000000000CC012C01590119028A016801BB
:100AD8007C0144697374616E63653A20000D0A00F5
:00000001FF
